:020000040800F2
:10000000B00A002001010008990F0008C30D000884
:10001000950F0008850900086B1B00080000000010
:10002000000000000000000000000000D5150008DE
:10003000610B00080000000065140008E1160008CC
:100040001B0100081B0100081B0100081B01000820
:100050001B0100081B0100081B0100081B01000810
:100060001B0100081B0100081B0100081B01000800
:100070001B0100081B0100081B0100081B010008F0
:100080001B0100081B0100081B0100081B010008E0
:100090001B0100081B0100081B0100081B010008D0
:1000A0001B0100081B0100081B0100081B010008C0
:1000B0001B0100081B0100081B0100081B010008B0
:1000C0001B0100081B0100081B0100081B010008A0
:1000D0001B010008451700089D1700088D1800082F
:1000E0001B0100081B0100081B010008DFF80CD0F1
:1000F00000F042FA00480047F52A0008B00A002044
:100100000648804706480047FEE7FEE7FEE7FEE7B1
:10011000FEE7FEE7FEE7FEE7FEE7FEE7E51600087E
:10012000ED00000840EA01039B0703D009E008C97D
:10013000121F08C0042AFAD203E011F8013B00F8AC
:10014000013B521EF9D2704730B505462A460B4690
:1001500012F8010B13F8014B08B1A042F8D01CB102
:10016000002802D06D1CF1E7284630BD421C10F873
:10017000011B0029FBD1801A704730B50B460146A0
:1001800000202022012409E021FA02F59D4205D336
:1001900003FA02F5491B04FA02F52844151EA2F1E0
:1001A0000102F1DC30BD2DE9F05F054600209246EA
:1001B0009B4688460646814640241BE02846414629
:1001C0004746224600F0F9F953465A46C01A914173
:1001D00010D311461846224600F0E0F92D1A67EBBD
:1001E00001084F4622460120002100F0D7F917EB05
:1001F00000094E41201EA4F10104DFDC48463146CF
:100200002A464346BDE8F09F2DE9FE4F804681EA2D
:100210000300C00F0C46009021F0004123F0004580
:10022000B8EB0200A94105D24046214690461C4643
:100230000B46024623F00040104347D0270DC7F37A
:100240000A00C3F30A510290401A019040286BDA69
:10025000C3F3130040F4801B0098924620B10023A2
:10026000D2EB030A63EB0B0B01985946C0F1400235
:10027000504600F093F906460D4650465946019AFD
:1002800000F0ABF910EB08006141002487EA11523D
:1002900084EAE7731A4340D0009A62B3019A012AB4
:1002A0004FEA075215DC001B61EB02014FF00042E0
:1002B00002EA0752CDE90042001C41F580113246A6
:1002C0002B4600F0ABF903B0BDE8F08F4046214665
:1002D000F9E7001B61EB0201001C41F580130018D7
:1002E0005B412018A2F5001747EB030140EAD570E7
:1002F000B6196D4111E06D084FEA360645EAC07542
:100300004FEA0752001B61EB0201001C41F580110E
:1003100049084FEA30000019514132462B4603B0DC
:10032000BDE8F04F00F06BB90098012240000023B7
:10033000D0EB020263EBE073009821464FEAE074D1
:10034000B8EB000061EB0401E9E783F000435BE7F1
:1003500081F0004158E72DE9FE4F81EA030404F0E3
:10036000004421F0004100944FF0000B23F00043C3
:1003700050EA01045ED052EA03045BD0C3F30A548E
:10038000C1F30A552C44A4F2F3340194A0FB0254A7
:10039000C1F3130141F48011C3F3130343F4801339
:1003A00001FB024400FB034E840A970A44EA81548D
:1003B00047EA8357A4FB076802958D0A05FB07856A
:1003C0004FEA932C04FB0C542705029D4FEA065874
:1003D00047EA1637B5EB08056EEB070C870E920E51
:1003E00047EA811742EA8312A7FB0201B6EB0B0131
:1003F00064EB00042B0D43EA0C335E1844EB1C50F5
:10040000DA465146E7FB0201C5F313044FEA0B330A
:1004100043EA14534FEA0432019C43EA0603A4F171
:100420000C040294009CCDE900B400F0F7F803B08E
:10043000BDE8F08F00200146F9E72DE9F04D81EA93
:10044000030404F0004B21F0004514464FF0000A6D
:1004500023F0004150EA050220D054EA01021DD0E9
:10046000C5F30A570246C5F31303C1F31300C1F3E2
:100470000A5640F4801543F48013A7EB0608101BBE
:10048000D64608F2FD3873EB050002D308F10108E7
:1004900001E092185B41B8F1000F03DA0020014639
:1004A000BDE8F08D00204FF48011064684460EE032
:1004B000171B73EB050705D3121B63EB05030643FC
:1004C0004CEA010C49084FEA300092185B4150EAAF
:1004D0000107EDD152EA030012D082EA040083EA58
:1004E0000501084305D0101BAB4106D201220023B1
:1004F00006E000224FF0004302E06FF001025310CB
:100500001AEB06004CEB085110EB0A0041EB0B0113
:10051000BDE8F04D00F073B8C1F30A52C1F3130106
:1005200040F2FF3341F480119A4202DA0020014682
:10053000704740F233439A42A2F2334202DC524205
:1005400000F03BB800F02AB830B5041E71F1000489
:1005500004DB4FF00044404264EB0101141E73F1D0
:10056000000405DB1C464FF00043524263EB0403DA
:10057000994208BF904230BD064C074D06E0E06846
:1005800040F0010394E8070098471034AC42F6D3DA
:10059000FFF7B0FD2836000848360008202A04DBA3
:1005A000203A00FA02F1002070479140C2F1200386
:1005B00020FA03F3194390407047202A04DB203AC5
:1005C00021FA02F00021704721FA02F3D040C2F173
:1005D00020029140084319467047202A06DBCB17BA
:1005E000203A41FA02F043EAE07306E041FA02F3EE
:1005F000D040C2F12002914008431946704710B51F
:10060000141E73F1000408DA401C41F10001921835
:100610005B411A4301D120F0010010BD2DE9F04DDE
:1006200092469B4611B1B1FA81F202E0B0FA80F233
:1006300020329046FFF7B2FF04460F4640EA0A0018
:1006400041EA0B0153465A46084313D0114653EA78
:10065000010019D0C8F140025046FFF7AEFF054631
:100660000E46504659464246FFF798FF084305D0CC
:10067000012004E020463946BDE8F08D0020054306
:1006800046EAE0762C4337430A986305E40AA0EB78
:1006900008000022FD0A44EA47540A3002D500202F
:1006A0000146E9E7010510196941DDE9084500192E
:1006B0006941BDE8F04DA2E770B58C1810F8015BF8
:1006C00015F0070301D110F8013B2A1106D110F8EB
:1006D000012B03E010F8016B01F8016B5B1EF9D1EF
:1006E0002B0705D40023521E0DD401F8013BFAE775
:1006F00010F8013BCB1A921C03E013F8015B01F8E0
:10070000015B521EF9D5A142D8D3002070BD21B1A2
:10071000826842F00102826003E0826822F00102F6
:100720008260704710B504461248844208D1012106
:10073000401500F0D5FE0021601500F0D1FE17E055
:100740000D48844208D10121001500F0C9FE0021A6
:10075000201500F0C5FE0BE00848844208D10121B5
:10076000C80300F0BDFE00214FF4004000F0B8FEC9
:1007700010BD00000024014000280140003C014061
:10078000014600208A6802F004020AB1012000E05C
:10079000002070470146C86C80B2704702460020B6
:1007A00013680B400BB1012000E0002070470146A8
:1007B00000208A6802F008020AB1012000E000204F
:1007C0007047000030B502460020002350680F4CEF
:1007D00020400D790C6844EA05242043506090685D
:1007E0000B4C2040D1E902542C434D7944EA450496
:1007F00020439060D06A20F470000C7C641EE4B248
:10080000234340EA0350D06230BD0000FFFEF0FFFA
:10081000FDF7F1FFF0B504460D4600200021092D3B
:1008200011DDE068A5F10A0606EB4607072606FA81
:1008300007F18843A5F10A0606EB460603FA06F11E
:100840000843E0600CE0206905EB4507072606FA3F
:1008500007F1884305EB450603FA06F108432061DA
:10086000072A0FDA606B561E06EB86071F2606FA6C
:1008700007F18843561E06EB860605FA06F1084383
:10088000606322E00D2A0FDA206BD61F06EB860785
:100890001F2606FA07F18843D61F06EB860605FADF
:1008A00006F10843206310E0E06AA2F10D0606EBB2
:1008B00086071F2606FA07F18843A2F10D0606EB0C
:1008C000860605FA06F10843E062F0BD816841F052
:1008D00008018160704721B1826842F4A002826001
:1008E00003E0826822F4A00282607047816841F0D0
:1008F000040181607047000000B587B001214FF40A
:10090000027000F0DDFD4FF4404000F0ADFD01202D
:10091000ADF8040000208DF8070001A9174800F089
:1009200048F91748FFF7FEFE002002908DF80C00F2
:100930008DF80D004FF460200490002005900120F8
:100940008DF8180002A90E48FFF73CFF01210C4862
:10095000FFF7DDFE0A48FFF7B9FF00BF0848FFF7C1
:1009600026FF0028FAD10648FFF7C0FF00BF044861
:10097000FFF706FF0028FAD107B000BD000C0140C8
:100980000024014000BFFEE706490978012908D18B
:100990000021044A11700449CA79897902EB0121C6
:1009A00001807047BC0200206006002010B50024C2
:1009B00000F024F804E0601CC4B2012000F0E2F86A
:1009C0000D48006808B1642CF5DB642C01DB0120C4
:1009D00010BD002404E0601CC4B2012000F0D2F875
:1009E0000548006808B9642CF5DB642C01DB0120A4
:1009F000EEE70020ECE700001401214208B50121D8
:100A0000052000F05DFD0121064800F05DF9202081
:100A1000ADF8000004208DF803006946024800F09C
:100A2000C8F808BD000230000008014008B50121E7
:100A3000052000F045FD0121084800F045F920207F
:100A4000ADF8000010208DF8030003208DF802009F
:100A50006946034800F0ADF808BD00000002300010
:100A60000008014010B500F065F8FFF79FFF10BDCA
:100A700010B5002404E0601CC4B2012000F082F82C
:100A80000D48006808B1642CF5DB002404E0601C0C
:100A9000C4B2012000F076F80748006808B9642C59
:100AA000F5DB282000F06EF80348006808B101204B
:100AB00010BD0020FCE700001401214270B50024A5
:100AC000002506E06006040EFFF7D2FF0443681C11
:100AD000C5B2082DF6DB204670BD7CB505460E4636
:100AE00000F028F8FFF762FFF8B9002405E0FFF7EF
:100AF000E5FF0DF80400601CC4B2052CF7DB9DF87F
:100B000000009DF8011008449DF8021008449DF86B
:100B1000031008449DF80410884208D19DF8000095
:100B200030709DF80200287001E001207CBD00209B
:100B3000FCE7000010B5FFF779FF002006490860C8
:100B4000142000F013F801200449C1F894011E207C
:100B500000F018F810BD000094012142000021426D
:100B6000704704204FF0E0210861704700B503464C
:100B700003E04FF47A7000F005F81800A3F10103C8
:100B8000F7D100BD00EBC001C9004FF0E022516178
:100B9000002191610521116100BF4FF0E021096939
:100BA00001F480310029F8D004214FF0E0221161D6
:100BB00070472DE9F0410246002500260020002361
:100BC0000024002791F803C00CF00F0591F803C032
:100BD0000CF0100CBCF1000F03D091F802C04CEAED
:100BE000050591F800C0BCF1000F31D01468002059
:100BF0002BE04FF0010C0CFA00F3B1F800C00CEA46
:100C000003069E4220D183004FF00F0C0CFA03F72D
:100C1000BC4305FA03FC4CEA040491F803C0BCF1A0
:100C2000280F06D14FF0010C0CFA00FCC2F814C0DA
:100C30000AE091F803C0BCF1480F05D14FF0010C58
:100C40000CFA00FCC2F810C0401C0828D1D3146074
:100C5000B1F800C0BCF1FF0F34DD546800202EE075
:100C600000F1080C4FF0010808FA0CF3B1F800C0CD
:100C70000CEA03069E4221D183004FF00F0C0CFAC0
:100C800003F7BC4305FA03FC4CEA040491F803C0E3
:100C9000BCF1280F05D100F1080C08FA0CF8C2F8D5
:100CA000148091F803C0BCF1480F07D100F1080C83
:100CB0004FF0010808FA0CF8C2F81080401C082810
:100CC000CED35460BDE8F081F0B50A46002300247D
:100CD0000021002500F00046B6F1004F02D11D4E64
:100CE000F16901E01B4E7168C0F3034583B200F463
:100CF0004016B6F5401F08D121F07061154E766898
:100D000026F07066134F7E6012E000F48016B6F590
:100D1000801F06D1032606FA05F4A14341F0706155
:100D200006E0460D360103FA06F6B14341F0706164
:100D300022B1460D360103FA06F6314300F00046B3
:100D4000B6F1004F02D1034EF16101E0014E716036
:100D5000F0BD000000000140416170470161704733
:100D600010B504460623012221460948FFF752FD2B
:100D700001210748FFF7AFFD00BF02210448FFF73C
:100D80000DFD0028F9D00248FFF704FD10BD00005A
:100D9000002401402DE9F04107460C4600250026BD
:100DA00008E03846FFF7DCFF05440120FFF7DEFED0
:100DB000701CC6B2A642F4DBB5FBF4F080B2BDE80D
:100DC000F08100BFFEE710B501F074FB10BD70B5F7
:100DD00005460C4601F03CFE782001F00FFE01F0C4
:100DE00063FE284601F00AFE01F05EFE204601F097
:100DF00005FE01F059FE01F043FE70BD38B5002438
:100E000000BF08E0E2B22107080E0023194600F0F7
:100E100097F9601CC4B2042CF4DB002409E0211D06
:100E2000CAB22107080E0023022100F089F9601CD4
:100E3000C4B2042CF3DB00240AE004F10801CAB2B6
:100E40002107080E0023042100F07AF9601CC4B2C7
:100E5000042CF2DB00240AE004F10C01CAB22107E1
:100E6000080E0023062100F06BF9601CC4B2042CAC
:100E7000F2DB002002233A2201460090402000F0DD
:100E8000D5F9002002233A2219460090402000F0B4
:100E9000CDF9002002233A2204210090402000F0E6
:100EA000C5F9002002233A2206210090402000F0DC
:100EB000BDF938BD10B520210148FFF74FFF10BD27
:100EC0000018014010B520210148FFF745FF10BD73
:100ED0000018014008B50121482000F0F1FA102067
:100EE0008DF803002020ADF8000003208DF80200EB
:100EF00069460848FFF75DFE69460748FFF759FE57
:100F000020210448FFF72AFF20210348FFF726FF8E
:100F100008BD0000000C0140001801401CB5094844
:100F2000008809490968CDE9001008480378084895
:100F3000027808A1164800F039FE3221144801F069
:100F4000B3FC1CBD24030020340300202803002030
:100F500027030020CEC2B6C83A2564A1E620CAAA5B
:100F6000B6C83A25642525524820CDC1C8C0CAAAB2
:100F7000B6C83A25642525524820B6FED1F5BBAF48
:100F8000CCBCC5A8B6C83A256470706D00000000DE
:100F90006906002000BFFEE77047000070B5002121
:100FA00000230F22C47804B3154C246804F4E064D1
:100FB000C4F5E064210AC1F10403CA40447804FA8C
:100FC00003F184781440214309010E4C0678A155A1
:100FD000047804F01F050124AC4005786D11AD00C4
:100FE00005F1E025C5F8004109E0047804F01F058B
:100FF0000124AC40044D0678761145F8264070BDBA
:101000000CED00E000E400E080E100E00249014373
:10101000024A1160704700000000FA050CED00E084
:1010200010B5002000F001F810BD70B50646002490
:1010300015E004F1B001C8B200F099FD002000F005
:1010400096FD102000F093FD002504E0304600F0EE
:1010500095FD681CC5B2802DF8DB601CC4B2082C5D
:10106000E7DB70BD10B56420FFF780FDAE2000F017
:101070007EFD202000F07BFD102000F078FDB020E8
:1010800000F075FDC82000F072FD002000F06FFD3B
:10109000102000F06CFD402000F069FD812000F080
:1010A00066FDFF2000F063FDA12000F060FDA6209A
:1010B00000F05DFDA82000F05AFD3F2000F057FD34
:1010C000A42000F054FDD32000F051FD002000F0DA
:1010D0004EFDD52000F04BFDF02000F048FDD9205A
:1010E00000F045FD222000F042FDDA2000F03FFD37
:1010F000122000F03CFDDB2000F039FD202000F044
:1011000036FD8D2000F033FD142000F030FDAF20BF
:1011100000F02DFD10BD70B504460D4605F1B0017F
:10112000C8B200F024FD102141EA141000F01FFDA8
:1011300004F00F0141F0010000F019FD70BD000046
:101140002DE9F04781460F4690461E4600254FEA9E
:10115000481439464846FFF7DEFF00BF0FE0012E76
:1011600006D11549095DC943C8B200F007FD03E087
:101170001149085D00F002FD641C681CC5B2102D09
:10118000EDDB781CC1B24846FFF7C5FF00250FE034
:10119000012E06D10849095DC943C8B200F0EEFC32
:1011A00003E00549085D00F0E9FC641C681CC5B259
:1011B000102DEDDBBDE8F0871C00002070B586B077
:1011C00006460D460024182212A16846FEF7AAFF23
:1011D00029463046FFF79FFF00BF05E01DF80400D9
:1011E00000F0CCFC601CC4B20C2CF7DB681CC1B254
:1011F0003046FFF790FF002407E004F10C011DF8D2
:10120000010000F0BBFC601CC4B20C2CF5DB06B086
:1012100070BD0000102810C02010101020700000B9
:101220000000000708101010100804002DE9F04716
:1012300007460E4691469A46DDF820800025002498
:10124000A9F12000C5B2BAF1020F40D1782F02DD1A
:101250000027701CC6B231463846FFF75CFF0024F9
:1012600013E0B8F1010F08D104EB05112B4A515CD2
:10127000C943C8B200F082FC05E004EB0511274A1F
:10128000505C00F07BFC601CC4B2082CE9DB701CD5
:10129000C1B23846FFF73FFF002415E0B8F1010F57
:1012A00009D104EB051108311C4A515CC943C8B28D
:1012B00000F064FC06E004EB05110831174A505CAD
:1012C00000F05CFC601CC4B2082CE7DB24E07E2F3D
:1012D00002DD0027701CC6B231463846FFF71BFFFF
:1012E000002417E0B8F1010F0AD105EB45010C4AC3
:1012F00002EB4101095DC943C8B200F03FFC07E0C1
:1013000005EB4501064A02EB4101085D00F036FCA1
:10131000601CC4B2062CE5DBBDE8F087383000085D
:10132000102E00082DE9F05F0746894690469B463F
:10133000DDF828A0002500240026BBF1010F03D012
:10134000BBF1020F34D134E02EE018F8060020384B
:10135000C5B27E2F04DD002709F1010000F0FF096E
:1013600049463846FFF7D7FE002417E0BAF1010FCF
:101370000AD105EB4501394A02EB4101095DC94338
:10138000C8B200F0FBFB07E005EB4501334A02EB76
:101390004101085D00F0F2FB601CC4B2062CE5DBE5
:1013A000B81DC7B2701CC6B218F806000028CCD110
:1013B00051E04BE018F806002038C5B2782F04DD64
:1013C000002709F1010000F0FF0949463846FFF700
:1013D000A2FE002413E0BAF1010F08D104EB0511BD
:1013E0001F4A515CC943C8B200F0C8FB05E004EBDA
:1013F00005111B4A505C00F0C1FB601CC4B2082CF4
:10140000E9DB09F10100C1B23846FFF784FE002490
:1014100015E0BAF1010F09D104EB05110831104AAA
:10142000515CC943C8B200F0A9FB06E004EB05110A
:1014300008310B4A505C00F0A1FB601CC4B2082CC0
:10144000E7DB07F10800C7B2701CC6B218F8060047
:101450000028AFD100BF00BFBDE8F09F102E0008EC
:10146000383000087047000001460020034A5068E9
:1014700020F44040084350607047000000100240D4
:1014800029B1064AD2690243044BDA6104E0034AF7
:10149000D2698243014BDA617047000000100240BC
:1014A00029B1064A12690243044B1A6104E0034A57
:1014B00012698243014B1A6170470000001002401C
:1014C00029B1064A92690243044B9A6104E0034A37
:1014D00092698243014B9A617047000000100240FC
:1014E00029B1064AD2680243044BDA6004E0034A99
:1014F000D2688243014BDA6070470000001002405E
:1015000030B500210022002400232D4D6D6805F028
:101510000C0121B1042905D0082923D105E0294D6A
:10152000056022E0274D05601FE0254D6D6805F43C
:101530007012234D6D6805F48034022505EB92424C
:101540001CB9214D554305600BE01D4D6D6805F438
:1015500000351DB11C4D5543056002E0194D554342
:10156000056002E0174D056000BF00BF144D6D68B7
:1015700005F0F0010909154D6B5C0568DD4045601B
:101580000F4D6D6805F4E061090A104D6B5C45680C
:10159000DD4085600A4D6D6805F46051C90A0B4D48
:1015A0006B5C4568DD40C560054D6D6805F44041E4
:1015B000890B074D6B5CC568B5FBF3F5056130BD64
:1015C0000010024000127A0000093D0000000020D7
:1015D000100000207047000010B504462146054861
:1015E00000F0BFFA00BF8021024800F0EDF90028AA
:1015F000F9D010BD0038014010B500F001F810BD61
:101600000CB50020019000903348006840F4803011
:101610003149086000BF3048006800F40030009095
:101620000198401C0190009818B90198B0F5A06F7E
:10163000F1D12948006800F4003010B10120009079
:1016400001E0002000900098012843D12348006861
:1016500040F01000214908600846006820F00300AF
:1016600008600846006840F0020008601A484068B8
:10167000194948600846406848600846406840F498
:10168000806048600846406820F47C104860084646
:10169000406840F4E81048600846006840F08070F8
:1016A000086000BF0C48006800F000700028F9D006
:1016B0000948406820F00300074948600846406830
:1016C00040F00200486000BF0348406800F00C0092
:1016D0000828F9D10CBD0000001002400020024093
:1016E0007047000010B51348006840F00100114930
:1016F000086008464068104908400E49486008469E
:1017000000680E4908400B4908600846006820F44C
:10171000802008600846406820F4FE0048604FF4CE
:101720001F008860FFF768FF4FF000600449086001
:1017300010BD0000001002400000FFF8FFFFF6FEA1
:1017400008ED00E010B540F22551114800F049F9CC
:1017500001280BD10E4800F0FFF90E490870084629
:101760000078FFF739FF01200B490870094800781D
:10177000412801D1FFF7A6FB06480078422801D195
:10178000FFF798FB40F22551014800F0B3F810BD77
:1017900000380140140000201500002010B540F270
:1017A0002551354800F01DF9002864D0324800F07A
:1017B000D3F9C4B23148007820B1012817D00228EB
:1017C00053D127E02C2C0CD12D482E4909784454B4
:1017D0002C480078401C2B490870012027490870CC
:1017E00004E0002027490870244908703DE024489F
:1017F00024490978445423480078401C2149087042
:1018000008460078092804DB0020087002201B49E4
:1018100008702AE01A48007819494978084418499C
:10182000897808441649C978084415490979084453
:101830001349497908441249897908441049C979FA
:101840000844C0B20E49097A884208D100200B49E9
:1018500008700C49087001200B49087004E0002052
:10186000084908700549087000BF00BF40F22551C3
:10187000014800F03FF810BD00440040BD020020C8
:1018800060060020BE020020BC02002010B540F21D
:101890002551154800F0A5F820B3134800F05CF975
:1018A000C4B2412C01D1FFF70DFB422C01D1FFF74F
:1018B00001FB0E48008800F4004098B90B480088EE
:1018C000B0F5C87F08DA094801880088401C074A3B
:1018D00010800748445405E00448008840F4004064
:1018E0000249088010BD0000004800401A00002096
:1018F000D004002010B50022002340F66A14A14253
:1019000000D100BF0A1201249440A3B2DC4304803A
:1019100010BD21B1828942F40052828104E08289A3
:101920004DF6FF731A4082817047000010B50446DF
:101930002048844209D101218803FFF7D1FD00210D
:101940004FF48040FFF7CCFD32E01B48844209D1C0
:1019500001214804FFF7A4FD00214FF40030FFF7F8
:101960009FFD25E01548844209D101218804FFF735
:1019700097FD00214FF48020FFF792FD18E01048FA
:10198000844209D10121C804FFF78AFD00214FF4E8
:101990000020FFF785FD0BE00A48844208D10121B1
:1019A0000805FFF77DFD00214FF48010FFF778FD5B
:1019B00010BD0000003801400044004000480040D5
:1019C000004C00400050004002460020B1F5007F6E
:1019D00000D100BF13880B400BB1012000E00020B4
:1019E000704770B50246002400230025002040F611
:1019F0006A16B14200D100BFC1F3421501F01F03C6
:101A0000012606FA03F3012D02D19689334006E040
:101A1000022D02D1168A334001E0968A33400C121F
:101A2000012606FA04F41688344013B10CB10120E3
:101A300000E0002070BDF0B503460024002600251C
:101A4000002040F66A17B94200D100BF1846C1F322
:101A5000421401F01F06012707FA06F5012C01D1F7
:101A60000C3004E0022C01D1103000E014301AB127
:101A700007682F43076002E00768AF430760F0BDC7
:101A80002DE9F04786B005460E460024A24600BF69
:101A9000A1460027B08900B100BF2F462C8A4CF622
:101AA000FF700440F08804432C82AC894EF6F3109A
:101AB0000440B08831890843718908430443AC81EC
:101AC000AC8A4FF6FF400440B0890443AC8201A8C1
:101AD000FFF716FD1F48874202D1DDF810A001E094
:101AE000DDF80CA0A88900F4004040B10AEBCA0060
:101AF00000EB0A1031684900B0FBF1F807E00AEB8F
:101B0000CA0000EB0A1031688900B0FBF1F86420CC
:101B1000B8FBF0F004012009642101FB1089A889B9
:101B200000F4004040B1322000EBC900B0FBF1F0FE
:101B300000F00700044308E0322000EB09106421A4
:101B4000B0FBF1F000F00F0004432C8106B0BDE8BB
:101B5000F08700000038014001468888C0F3080083
:101B60007047C1F308028280704700BFFEE710B5DE
:101B7000044621460020FFF72AF910BD10B504469F
:101B800021464020FFF723F910BD00000FB4054B9C
:101B900010B503A9044A029800F0F0F810BC5DF8F3
:101BA00014FB0000D92900083C0300200FB4084BA7
:101BB00010B504A902AA039800F0E0F8044602A9AF
:101BC000002000F072FC204610BC5DF814FB000001
:101BD000AB24000837B514460846064B6A46214632
:101BE00000F0CCF804466946002000F05EFC204678
:101BF0003EBD0000AB24000802E008C8121F08C167
:101C0000002AFAD170477047002001E001C1121F7D
:101C1000002AFBD1704700002DE9FF5FDDE90220BB
:101C2000010DDDF838B0024318D044F61050A1F28F
:101C3000FF3141430D140F98012820D0A5EB0B0074
:101C4000401C5FEA000A4FF00004474EDFF81C9189
:101C5000A046504616D5CAF1000728E00F98012487
:101C600043A2012808D0002100980F9BC0E9002161
:101C7000C0E90243BDE8FF9F6FEA0B01F4E7CBF137
:101C80000000DEE7074612E0F80707D02246334699
:101C900040464946FEF75FFB80468946224633466A
:101CA00010461946FEF757FB04460E467F10002FDC
:101CB000EAD1DDE90201BAF1000F42464B4602DAF1
:101CC000FEF749FB01E0FEF7B8FB04460E46002292
:101CD000284BFEF739FC03D84FF0FF30014607E0F0
:101CE0000022254B20463146FEF78EFAFEF714FC03
:101CF000102409E0002C0ADB0A220023FEF753FA25
:101D0000019B30321A55641E50EA0102F2D1641C64
:101D1000019AC4F1110314440F9A012A03D001223D
:101D200008430DD10AE0084304D000204FF0110B06
:101D30000F9080E7A3EB0B056D1E0DE05B4504DD06
:101D40004FF0000205F1010504E003DA4FF0000254
:101D5000A5F10105002AECD000980F99C0E90231E5
:101D6000C0E9004586E70000000024400000F03F85
:101D7000300000000000F0430000E03F2DE9FF4F7D
:101D800095B09B468946064600250FE2252877D167
:101D900000242746F84A0121059400E0044316F880
:101DA000013F203B01FA03F01042F7D130782A2896
:101DB00011D06FF02F033078A0F13002092A16D825
:101DC000059A44F0020402EB820203EB4202104443
:101DD000761C0590EFE759F8042B0592002A03DAE8
:101DE000504244F40054059044F00204761C3078CC
:101DF0002E2816D116F8010F44F004042A280DD01D
:101E00006FF02F023078A0F13003092B09D807EBCF
:101E1000870302EB4303C718761CF3E759F8047BEA
:101E2000761C30786C280FD006DC4C2817D0682838
:101E30000DD06A2814D104E0742810D07A280FD16C
:101E40000DE044F400140AE044F4801401E044F48A
:101E500040147278824202D104F58014761C761CFC
:101E6000307866280BD013DC582877D009DC00289E
:101E700075D04528F6D04628F4D047281AD19DE1E0
:101E800018E0632835D0642879D0652812D195E10F
:101E9000702873D008DC6728F1D069286FD06E28CD
:101EA0000DD06F2806D1B5E073282CD0752875D0D9
:101EB000782874D05A46179990476D1C75E1C4F381
:101EC0000250022809D003280DD0D9F800100428A8
:101ED0000DD00D6009F1040967E1D9F80010EA1787
:101EE000C1E90052F6E7D9F800100D80F2E70D7055
:101EF000F0E719F8041B8DF8001000208DF80100A0
:101F0000EA46012003E059F804AB4FF0FF306107C7
:101F10004FF0000102D40DE008F101018846B942FA
:101F20000FDA8045F8DB1AF808100029F4D108E030
:101F300008F1010188468142FADB1AF808100029ED
:101F4000F6D105985B46A0EB080721463846179A5C
:101F500000F094FA284400EB080507E04DE029E181
:101F60000DE01AF8010B5A4617999047B8F101088D
:101F7000F7D25B4621463846179A13E142E00A221F
:101F80000092C4F302524FF0000A022A08D059F816
:101F900004CB032A4FEAEC710AD00DE029E02AE0D5
:101FA00009F1070121F00702F2E802C1914609E0B8
:101FB0000FFA8CFC4FEAEC71042A03D14FFA8CFC27
:101FC0004FEAEC71002907DA0A460021DCF1000C27
:101FD00061EB02012D2202E0220504D52B228DF8AF
:101FE0000420012203E0E20701D02022F7E7904617
:101FF00059E00A2102E010220DE010214FF0000A02
:1020000000910BE010224FF0000A44F0040408276E
:10201000009203E008224FF0000A0092C4F302523B
:10202000022A05D059F804CB0021032A08D009E080
:1020300009F1070121F00702F2E802C1914605E02B
:102040001FFA8CFC042A01D10CF0FF0C4FF00008A1
:10205000220728D5702806D0009B83F0100353EA8E
:102060000A0305D00EE040228DF80420012208E08A
:102070005CEA010206D030228DF804208DF80500BC
:1020800002229046009B83F0080353EA0A030AD118
:102090005CEA010201D1620705D530228DF80420E7
:1020A0004FF001087F1E582804D034A003900EA8DA
:1020B00002900DE036A0F9E753466046009AFEF71D
:1020C00072F884460398825C0298401E0290027067
:1020D0005CEA0100F0D1029806A9081A00F1200A72
:1020E000600702D524F4803400E00127574502DD63
:1020F000A7EB0A0000E0002000EB0A010090059821
:102100004144401A0590E00306D45B462146179AE5
:10211000059800F0B3F90544002706E001A85A46E7
:10212000C05D179990476D1C7F1C4745F6DBE003A7
:102130000CD55B462146179A059800F09FF9054497
:1021400004E030205A46179990476D1C0099481EAC
:1021500000900029F5DC08E0029802995A460078C0
:10216000491C0291179990476D1CBAF10001AAF120
:10217000010AF1DC65E10000092801003031323349
:1021800034353637383961626364656600000000B3
:10219000303132333435363738394142434445469D
:1021A0000000000000F058F90544761C3078002843
:1021B0007FF4ECAD19B02846BDE8F08F620700D47B
:1021C000062709F1070222F0070CFCE80223E1468A
:1021D00003F000485FEA080C02D00FF2702C0DE00B
:1021E0005FEA045C02D50FF2682C07E05FEAC47C6A
:1021F00002D00FF2602C01E0AFF2700C4FF0FF380C
:1022000023F00043CDF850C065280CD006DC4528EB
:1022100009D046281DD047283DD13DE0662818D07A
:1022200067287ED138E00021112F01DB112000E06A
:10223000781CCDE9000106A90EA8FFF7EDFCDDE949
:102240000F010E9A03910021009207F1010A0491F7
:102250004DE04FF000400097CDE9011006A90EA80F
:10226000FFF7DAFCDDE90F0203920E9B11990022C1
:10227000DDF80CA00093049211B9791C00EB010A5F
:10228000B7EB0A0004D4C0F1FF3007F1010A049053
:10229000AAEB0700019044E0012F00DA012700219A
:1022A000112F01DD112000E03846CDE9000106A91B
:1022B0000EA8FFF7B1FCDDE90F010E9A0391002192
:1022C00004910092BA4621070CD40399514500DAD3
:1022D0008A46BAF1010F05DD009AAAF10101515CAD
:1022E000302908D0B84202DA10F1040F06DA0121D1
:1022F000CDE9011015E0AAF10101E9E7002805DCAC
:10230000049901440491AAEB000102E0411C5145EB
:1023100000DD8A460499401A401C01904FF00040AD
:102320000290200704D40198504501DBCDF80480C9
:1023300000208DF84F0002980DF14F07B0F1004FCB
:1023400025D02B200E9002984FF0020800280CDABE
:10235000404202902D200E9007E00A210298FDF7DE
:102360000CFF3031029007F8011DB8F10001A8F10F
:102370000108F2DC02980028EFD1791E0E9808704F
:10238000307800F0200040F0450007F8020D12A858
:10239000C01B00F107081498007800B1012000EB81
:1023A0000A01019801EBE07105984144401A401E72
:1023B0000590E00306D45B462146179A059800F085
:1023C0005DF805441498007818B15A46179990475B
:1023D0006D1CE00324D55B462146179A059800F052
:1023E0004DF805441CE00498002807DBDDE90301F3
:1023F000884203DD0098405C179901E0179930206E
:102400005A469047049805F10105401C0490019834
:10241000401E019004D12E205A46179990476D1CFA
:10242000BAF10001AAF1010ADDDC05E017F8010BA1
:102430005A46179990476D1CB8F10001A8F10108A0
:10244000F4DC5B462146179A0598ABE62D000000A8
:102450002B000000200000002DE9F041044600257B
:102460001E461746880404D405E039462020B047AC
:102470006D1C641EF9D52846BDE8F0812DE9F041B8
:10248000044600251E469046C80301D5302700E0CB
:102490002027880404D505E041463846B0476D1C26
:1024A000641EF9D52846BDE8F0810A68531C0B600C
:1024B0001070704708B501211020FFF701F80320C4
:1024C0008DF8020014208DF803004FF40060ADF881
:1024D000000069460648FEF76CFB4FF48050ADF8EB
:1024E000000069460248FEF764FB00F0C9FA08BD27
:1024F0000010014038B526480088B0F57A7F03DB2C
:1025000040F2E73022490880214800884FF47A7170
:1025100090FBF1F201FB1200642190FBF1F03030EE
:10252000C4B2002002232246062100904E20FEF76E
:102530007DFE17480088642190FBF1F201FB120038
:102540000A2190FBF1F03030C4B200200223224671
:10255000062100905620FEF769FE0D4800880A21EA
:1025600090FBF1F201FB12003030C4B200200223D4
:102570002246062100905E20FEF758FE002002232E
:1025800004A2062100906620FEF7CCFE38BD0000B4
:102590002403002070706D0038B535493548FEF7CA
:1025A0009CFA3448007834490978884213DB334870
:1025B000007880B1002002232022014600904E20A6
:1025C000FEF734FE00200223202201460090562010
:1025D000FEF72CFE1FE0274800780A2190FBF1F05F
:1025E0003030C4B2002002232246014600904E2023
:1025F000FEF71CFE1F4800780A2190FBF1F201FB58
:1026000012003030C4B2002002232246014600905E
:102610005620FEF70BFE00215E20FEF7CFFD14488A
:1026200000780A2190FBF1F03030C4B20020022380
:102630002246194600904E20FEF7F8FD0C4800781F
:102640000A2190FBF1F201FB12003030C4B20020ED
:1026500002232246194600905620FEF7E7FD00208F
:1026600002232522194600905E20FEF7DFFD38BDCB
:102670002803002027030020290300203A0300201C
:1026800038B50A210820FEF785FB00EB401000EB6F
:102690004004E01704EB10500013C0F1640025491A
:1026A000086008460068632801D963200860214853
:1026B000006821490968884213D82048007880B111
:1026C000002002232022042100904E20FEF7AEFDC0
:1026D000002002232022042100905620FEF7A6FDB0
:1026E0001FE0144800680A21B0FBF1F03030C4B29A
:1026F000002002232246042100904E20FEF796FD82
:102700000C4800680A21B0FBF1F201FB120000F155
:102710003004002002232246042100905620FEF7B8
:1027200085FD002002232522042100905E20FEF773
:102730007DFD38BD34030020300300203A03002023
:1027400070B50446002521460248FDF7FDFC05460C
:10275000284670BDD004002010B532220CA10DA077
:1027600000F06CF814220EA10FA000F067F84FF4EF
:102770007A70FEF7FBF94FF47A70FEF7F7F94FF431
:102780007A70FEF7F3F94FF47A70FEF7EFF910BDA7
:102790004F4B000041542B43574D4F44453D3100B2
:1027A000726561647900000041542B52535400005B
:1027B00010B501240FA000F003FB4FF47A70FEF770
:1027C000D5F900BF4FF4FA60FEF7D0F914220AA140
:1027D0000AA000F033F804461CB10AA0FFF7D6F9AE
:1027E00003E00EA0FFF7D2F901E0002CEAD100BF10
:1027F000204610BD2B2B2B004F4B000041542B5279
:1028000053540000717569745F7472616E73206651
:1028100061696C6564210D0A0000000071756974BE
:102820005F7472616E732073756363657373210DDA
:102830000A00000010B5FFF7BBFF10BD2DE9F04105
:1028400006460D46144600270020114908803146EF
:1028500010A000F0B5FABDB1B4B10BE00A20FEF74C
:1028600085F92846FFF76CFF20B129460BA0FFF73A
:102870008DF903E0601E80B20400EFD100BF00209C
:102880000349088004B901273846BDE8F0810000FB
:102890001A00002025730D0A0000000061636B3AE6
:1028A00025730D0A000000007CB506460C466D46F7
:1028B00000200F490880304600F082FAACB102E0F7
:1028C0000A20FEF753F9601E80B20400F8D10849CF
:1028D0000988C1F30E01074A50541546294606A03F
:1028E000FFF754F900200249088028467CBD00000B
:1028F0001A000020D004002061636B3A25730D0A92
:102900000000000010B500BF4FF416720EA111A018
:10291000FFF794FF0028F7D1142216A116A0FFF7A5
:102920008DFF00BFC82217A118A0FFF787FF00285E
:10293000F8D1C8220FA11FA0FFF780FF32220DA1FE
:1029400020A0FFF77BFF10BD5749464920474F5451
:102950002049500041542B43574A41503D22526573
:102960006E6F222C226C757A68697975363636223C
:10297000000000004F4B000041542B4349504D557F
:10298000583D3000434F4E4E4543540041542B4375
:10299000495053544152543D22544350222C223129
:1029A00039322E3136382E302E313233222C383017
:1029B0003836000041542B4349504D4F44453D317A
:1029C0000000000041542B43495053454E44000041
:1029D00010B5FFF797FF10BD70B504460D46E1B284
:1029E0000548FFF7BEF800BF40210348FEF7ECFFA3
:1029F0000028F9D0204670BD0038014070B504466B
:102A0000002520E004F0800020B14FF480500F49F1
:102A1000086103E04FF480500C4948610220FEF742
:102A2000B1F84FF40060094908610220FEF7AAF8E6
:102A30004FF40060054948616006040E0220FEF76D
:102A4000A1F8681CC5B2082DDCDB70BD0010014088
:102A500010B54FF480500949086140100861042006
:102A6000FEF790F84FF48050044948610420FEF7C7
:102A700089F84FF400600149486110BD0010014021
:102A800010B54FF480500749486140100861042098
:102A9000FEF778F84FF48050024908610420FEF7F1
:102AA00071F810BD0010014010B54FF4805010496E
:102AB00008610120FEF766F84FF400600C490861D8
:102AC0000120FEF75FF807E0601CC4B2FA2C03DDBA
:102AD000FFF7D6FF012010BD0548806800F4805044
:102AE0000028F1D14FF40060014948610020F2E76D
:102AF0000010014008B500244FF4A060FEF786FAEC
:102B0000FEF72FF8FEF7E6F9FEF75DF9FEF7AAFAF1
:102B1000FDF7F2FEFEF784FA0020022320A2032133
:102B20000090FEF7FFFB00BF0AE004F11001CAB2FB
:102B30002107080E00230321FEF702FB601CC4B22C
:102B4000052CF2DB4FF4E13000F040F84FF4165062
:102B500000F08CF84FF4E13000F0DAF8FFF7FCFDFC
:102B6000C82213A113A0FFF769FEFFF763FEFFF76A
:102B70002FFFFDF777FFFEF753FAFEF73FF90EE060
:102B80000F491048FDF7A9FF0F48FDF7FDFEFEF7BE
:102B9000C5F9FFF701FDFFF773FDFFF7ABFCEFE7AA
:102BA000202020202020202020202E2E2E0000005B
:102BB000304B000041542B4357514150000000005E
:102BC00028030020270300202403002010B586B02E
:102BD0000446012144F20400FEF772FC4FF4007039
:102BE000ADF8140003208DF8160018208DF817009A
:102BF00005A91C48FDF7DDFF4FF48060ADF8140017
:102C000004208DF8170005A91648FDF7D2FF2520EE
:102C10008DF8000003208DF801008DF802000120DE
:102C20008DF803006846FEF7B9F901940020ADF86D
:102C30000800ADF80A00ADF80C00ADF810000C204B
:102C4000ADF80E0001A90848FEF71AFF012240F274
:102C500025510548FEF7EFFE01210348FEF759FE16
:102C600006B010BD000801400038014010B586B024
:102C7000044601214804FEF703FC01210420FEF76D
:102C80001FFC0420ADF8140003208DF81600182056
:102C90008DF8170005A91C48FDF78BFF0820ADF83B
:102CA000140004208DF8170005A91748FDF781FFCF
:102CB00026208DF8000000208DF8010004208DF8FA
:102CC000020001208DF803006846FEF767F90194C1
:102CD0000020ADF80800ADF80A00ADF80C00ADF822
:102CE00010000C20ADF80E0001A90848FEF7C8FE40
:102CF000012240F225510548FEF79DFE01210348BF
:102D0000FEF707FE06B010BD000801400044004079
:102D100010B586B0044601210920FEF7D1FB012140
:102D20008804FEF7ADFB2448FEF700FE4FF48060F8
:102D3000ADF8100018208DF8130003208DF8120054
:102D400004A91E48FDF735FF4FF40060ADF81000F0
:102D500004208DF8130004A91848FDF72AFF0094F9
:102D60000020ADF80400ADF80600ADF80800ADF89D
:102D70000C000C20ADF80A0069460F48FEF780FEF3
:102D800001210D48FEF7C5FD012240F225510A48F8
:102D9000FEF751FE27208DF8140002208DF8150053
:102DA00003208DF8160001208DF8170005A8FEF706
:102DB000F5F806B010BD000000480040000C0140CE
:102DC0000FB438B505A800900F48009A0499FEF793
:102DD00001FF002000900C48FDF7C8F985B20024DF
:102DE0000DE000BF40210948FEF7EEFD0028F9D0B4
:102DF0000548015D0548FEF7B4FE601C84B2AC4294
:102E0000EFDB38BC5DF814FB4003002000480040B5
:102E10000000000000000000002F0000000007007C
:102E2000070000147F147F1400242A7F2A120062F6
:102E300064081323003649552250000005030000A2
:102E400000001C224100000041221C000014083E2A
:102E500008140008083E0808000000A060000008F0
:102E60000808080800006060000000201008040244
:102E7000003E5149453E0000427F40000042615102
:102E80004946002141454B31001814127F1000279C
:102E900045454539003C4A4949300001710905035F
:102EA00000364949493600064949291E0000363690
:102EB00000000000563600000008142241000014F3
:102EC00014141414000041221408000201510906D0
:102ED00000324959513E007C1211127C007F494951
:102EE0004936003E41414122007F4141221C007F82
:102EF00049494941007F09090901003E4149497A90
:102F0000007F0808087F0000417F41000020404109
:102F10003F01007F08142241007F40404040007F75
:102F2000020C027F007F0408107F003E4141413EB9
:102F3000007F09090906003E4151215E007F091901
:102F400029460046494949310001017F0101003FFE
:102F50004040403F001F2040201F003F4038403F7E
:102F600000631408146300070870080700615149E2
:102F7000454300007F41410000552A552A55000075
:102F800041417F00000402010204004040404040F3
:102F9000000001020400002054545478007F48448B
:102FA000443800384444442000384444487F0038C2
:102FB0005454541800087E0901020018A4A4A47CEB
:102FC000007F080404780000447D400000408084B5
:102FD0007D00007F102844000000417F4000007CFD
:102FE00004180478007C0804047800384444443809
:102FF00000FC242424180018242418FC007C080455
:10300000040800485454542000043F444020003C2D
:103010004040207C001C2040201C003C4030403CB4
:10302000004428102844001CA0A0A07C0044645444
:103030004C44141414141414000000000000000088
:103040000000000000000000000000F80000000088
:10305000000000333000000000100C06100C0600C9
:10306000000000000000000040C07840C078400030
:10307000043F04043F040400007088FC0830000092
:10308000001820FF211E0000F008F000E0180000EA
:1030900000211C031E211E0000F0088870000000A3
:1030A0001E2123241927211010160E0000000000F5
:1030B0000000000000000000000000E01804020012
:1030C000000000071820400000020418E000000083
:1030D0000040201807000000404080F08040400081
:1030E0000202010F01020200000000F000000000D7
:1030F0000101011F010101000000000000000000AB
:1031000080B070000000000000000000000000001F
:1031100000010101010101010000000000000000A8
:103120000030300000000000000000008060180443
:10313000006018060100000000E010080810E00020
:10314000000F102020100F00001010F800000000E9
:103150000020203F20200000007008080888700030
:1031600000302824222130000030088888483000B0
:103170000018202020110E000000C02010F80000D0
:1031800000070424243F240000F808888808080069
:103190000019212020110E0000E01088881800007E
:1031A000000F112020110E0000380808C838080050
:1031B0000000003F000000000070880808887000D0
:1031C000001C222121221C0000E010080810E00051
:1031D0000000312222110F00000000C0C0000000DA
:1031E00000000030300000000000008000000000FF
:1031F00000008060000000000000804020100800F7
:1032000000010204081020004040404040404000BF
:10321000040404040404040000081020408000009A
:103220000020100804020100007048080808F0009F
:103230000000003036010000C030C828E810E0006F
:103240000718272423140B000000C038E0000000FA
:10325000203C23020227382008F888888870000064
:10326000203F202020110E00C03008080808380038
:10327000071820202010080008F808080810E000AF
:10328000203F202020100F0008F88888E808100050
:10329000203F20202320180008F88888E808100024
:1032A000203F200003000000C0300808083800005C
:1032B00007182020221E020008F808000008F8085D
:1032C000203F210101213F20000808F808080000E4
:1032D0000020203F2020000000000808F808080017
:1032E000C08080807F00000008F888C0281808008F
:1032F000203F20012638200008F8080000000000C8
:10330000203F20202020300008F8F800F8F80800BE
:10331000203F003F003F200008F830C00008F808B8
:10332000203F200007183F00E01008080810E000C8
:103330000F10202020100F0008F808080808F000DF
:10334000203F210101010000E01008080810E00002
:103350000F18242438504F0008F888888888700097
:10336000203F2000030C3020007088080808380037
:103370000038202121221C00180808F8080818002D
:103380000000203F2000000008F808000008F808AE
:10339000001F202020201F000878880000C838085F
:1033A000000007380E010000F80800F80008F800D7
:1033B000033C0700073C0300081868808068180871
:1033C00020302C03032C30200838C800C8380800EF
:1033D0000000203F2000000010080808C83808003E
:1033E0002038262120201800000000FE02020200E2
:1033F0000000007F40404000000C30C00000000092
:10340000000000010638C00000020202FE000000B9
:10341000004040407F00000000000402020204005F
:10342000000000000000000000000000000000009C
:103430008080808080808080000202040000000084
:10344000000000000000000000008080808000007C
:103450000019242222223F2008F80080800000006A
:10346000003F112020110E0000000080808000002D
:10347000000E112020201100000000808088F8003C
:10348000000E112020103F2000008080808000006E
:10349000001F222222221300008080F088888818D2
:1034A0000020203F202000000000808080808000DD
:1034B000006B94949493600008F800808080000072
:1034C000203F210000203F2000809898000000004D
:1034D0000020203F2020000000000080989800007D
:1034E00000C08080807F000008F80000808080009D
:1034F000203F24022D302000000808F800000000C2
:103500000020203F2020000080808080808080007C
:10351000203F20003F20003F80800080808000000E
:10352000203F210000203F2000008080808000009C
:10353000001F202020201F008080008080000000CD
:1035400080FFA12020110E000000008080808000FC
:10355000000E112020A0FF808080800080808000ED
:1035600020203F212000010000008080808080001A
:103570000033242424241900008080E0808000008F
:103580000000001F202000008080000000808000DC
:10359000001F202020103F2080808000008080803D
:1035A00000010E30080601008080008000808080CD
:1035B0000F300C030C300F000080800080808000F2
:1035C0000020312E0E31200080808000008080801D
:1035D00080818E70180601000080808080808000CD
:1035E0000021302C2221300000000000807C0202EB
:1035F00000000000003F404000000000FF0000000D
:1036000000000000FF0000000002027C80000000BB
:103610000040403F000000000006010102020404D7
:1036200000000000000000004836000800000020F4
:1036300040030000B80600080438000840030020DA
:1036400070070000081C0008412D010203040480DB
:1036500009060708090204060817048484FC848408
:103660001009040484E41C840404100A2060201F50
:1036700010100402011AFF35120610101010FF106E
:103680001020A4ACB5A6B4ACA42020101010301F9C
:103690000888804F3A0A0A7A8A8F80E025106002F3
:1036A0008C2BFE92012AFE501809047E01407E42B6
:1036B000427E0234427E402809FC242424FC252634
:1036C0002408120408104440308F80844C5525256E
:1036D00025554C80808080497F7980080B204448A4
:1036E000507F40407F50484480212A40013AFF06E5
:1036F000690E193D59083980111E82BAEABA83044D
:10370000228208104108180F04484A2AFF8A4A1AE0
:103710002F5A8A88808A080131CA100111180F08AF
:1037200024236AAA2AAA6A2A2A2AEA0202201E1145
:10373000151515FF042711100F3040F8358060F87B
:103740000727FF40201008041A010B113D04020155
:103750003FBF12781604E45C44C4100A809EF090C7
:103760009F90909E802010013F10107F201806919E
:103770004C300F3048844FFE02224282720529C12C
:103780002FFF100806010E05244E807F300E2030DA
:10379000AC6330201018A744A4140C180E22672222
:1037A00012120402FD44444445FD9115404042CCB0
:1037B0001F0444645C47F41319811D40201F200A34
:1037C0002C44447F0529D0180DFF1050445465C681
:1037D00044645444402B180D827F0182824A562350
:1037E00022524E82D1112AF0E82AFF0552F01B0F17
:1037F00004012AFF05720F02686E6223720A221406
:043800004201000081
:04000005080000ED02
:00000001FF
